{
  "contractName": "CarSale",
  "abi": [
    {
      "inputs": [
        {
          "internalType": "address",
          "name": "",
          "type": "address"
        }
      ],
      "name": "cars",
      "outputs": [
        {
          "internalType": "string",
          "name": "licensePlate",
          "type": "string"
        },
        {
          "internalType": "string",
          "name": "chassisNumber",
          "type": "string"
        },
        {
          "internalType": "string",
          "name": "brand",
          "type": "string"
        },
        {
          "internalType": "string",
          "name": "carType",
          "type": "string"
        },
        {
          "internalType": "string",
          "name": "color",
          "type": "string"
        },
        {
          "internalType": "uint256",
          "name": "mileage",
          "type": "uint256"
        },
        {
          "internalType": "address",
          "name": "owner",
          "type": "address"
        },
        {
          "internalType": "uint256",
          "name": "price",
          "type": "uint256"
        },
        {
          "internalType": "bool",
          "name": "isForSale",
          "type": "bool"
        }
      ],
      "stateMutability": "view",
      "type": "function",
      "constant": true
    },
    {
      "inputs": [
        {
          "internalType": "string",
          "name": "_licensePlate",
          "type": "string"
        },
        {
          "internalType": "string",
          "name": "_chassisNumber",
          "type": "string"
        },
        {
          "internalType": "string",
          "name": "_brand",
          "type": "string"
        },
        {
          "internalType": "string",
          "name": "_carType",
          "type": "string"
        },
        {
          "internalType": "string",
          "name": "_color",
          "type": "string"
        },
        {
          "internalType": "uint256",
          "name": "_mileage",
          "type": "uint256"
        }
      ],
      "name": "createCar",
      "outputs": [],
      "stateMutability": "nonpayable",
      "type": "function"
    },
    {
      "inputs": [
        {
          "internalType": "uint256",
          "name": "_mileage",
          "type": "uint256"
        }
      ],
      "name": "updateCarMileage",
      "outputs": [],
      "stateMutability": "nonpayable",
      "type": "function"
    },
    {
      "inputs": [
        {
          "internalType": "address",
          "name": "_owner",
          "type": "address"
        }
      ],
      "name": "getCarData",
      "outputs": [
        {
          "components": [
            {
              "internalType": "string",
              "name": "licensePlate",
              "type": "string"
            },
            {
              "internalType": "string",
              "name": "chassisNumber",
              "type": "string"
            },
            {
              "internalType": "string",
              "name": "brand",
              "type": "string"
            },
            {
              "internalType": "string",
              "name": "carType",
              "type": "string"
            },
            {
              "internalType": "string",
              "name": "color",
              "type": "string"
            },
            {
              "internalType": "uint256",
              "name": "mileage",
              "type": "uint256"
            },
            {
              "internalType": "address",
              "name": "owner",
              "type": "address"
            },
            {
              "internalType": "uint256",
              "name": "price",
              "type": "uint256"
            },
            {
              "internalType": "bool",
              "name": "isForSale",
              "type": "bool"
            }
          ],
          "internalType": "struct CarSale.Car",
          "name": "",
          "type": "tuple"
        }
      ],
      "stateMutability": "view",
      "type": "function",
      "constant": true
    },
    {
      "inputs": [
        {
          "internalType": "uint256",
          "name": "_price",
          "type": "uint256"
        }
      ],
      "name": "setCarForSale",
      "outputs": [],
      "stateMutability": "nonpayable",
      "type": "function"
    },
    {
      "inputs": [
        {
          "internalType": "uint256",
          "name": "_price",
          "type": "uint256"
        }
      ],
      "name": "adjustSalePrice",
      "outputs": [],
      "stateMutability": "nonpayable",
      "type": "function"
    }
  ],
  "bytecode": "0x608060405234801561001057600080fd5b50611149806100206000396000f3fe608060405234801561001057600080fd5b50600436106100625760003560e01c80631b1737cd1461006757806324e3ba5e1461007c57806358f39ec01461008f5780639d18e79f146100a2578063afd79cbd146100cb578063cda6be15146100f3575b600080fd5b61007a610075366004610c46565b610106565b005b61007a61008a366004610c46565b610215565b61007a61009d366004610d02565b6102b6565b6100b56100b0366004610ddc565b610444565b6040516100c29190610e52565b60405180910390f35b6100de6100d9366004610ddc565b61084e565b6040516100c299989796959493929190610f31565b61007a610101366004610c46565b610b4a565b336000818152602081905260409020600601546001600160a01b0316146101865760405162461bcd60e51b815260206004820152602960248201527f4f6e6c792074686520636172206f776e65722063616e2075706461746520746860448201526865206d696c6561676560b81b60648201526084015b60405180910390fd5b3360009081526020819052604090206005015481116102005760405162461bcd60e51b815260206004820152603060248201527f4e6577206d696c65616765206d75737420626520686967686572207468616e2060448201526f70726576696f7573206d696c6561676560801b606482015260840161017d565b33600090815260208190526040902060050155565b336000818152602081905260409020600601546001600160a01b0316146102925760405162461bcd60e51b815260206004820152602b60248201527f4f6e6c792074686520636172206f776e65722063616e2070757420746865206360448201526a617220666f722073616c6560a81b606482015260840161017d565b33600090815260208190526040902060088101805460ff1916600117905560070155565b336000908152602081905260409020600601546001600160a01b03161561032b5760405162461bcd60e51b815260206004820152602360248201527f43617220616c72656164792065786973747320666f722074686973206164647260448201526265737360e81b606482015260840161017d565b60408051610120810182528781526020808201889052818301879052606082018690526080820185905260a082018490523360c08301819052600060e0840181905261010084018190529081529081905291909120815182919081906103919082611053565b50602082015160018201906103a69082611053565b50604082015160028201906103bb9082611053565b50606082015160038201906103d09082611053565b50608082015160048201906103e59082611053565b5060a0820151600582015560c08201516006820180546001600160a01b0319166001600160a01b0390921691909117905560e08201516007820155610100909101516008909101805460ff191691151591909117905550505050505050565b61049e60405180610120016040528060608152602001606081526020016060815260200160608152602001606081526020016000815260200160006001600160a01b03168152602001600081526020016000151581525090565b6001600160a01b03828116600090815260208190526040902060060154166105145760405162461bcd60e51b815260206004820152602360248201527f43617220646f6573206e6f7420657869737420666f722074686973206164647260448201526265737360e81b606482015260840161017d565b6001600160a01b038216600090815260208190526040908190208151610120810190925280548290829061054790610fca565b80601f016020809104026020016040519081016040528092919081815260200182805461057390610fca565b80156105c05780601f10610595576101008083540402835291602001916105c0565b820191906000526020600020905b8154815290600101906020018083116105a357829003601f168201915b505050505081526020016001820180546105d990610fca565b80601f016020809104026020016040519081016040528092919081815260200182805461060590610fca565b80156106525780601f1061062757610100808354040283529160200191610652565b820191906000526020600020905b81548152906001019060200180831161063557829003601f168201915b5050505050815260200160028201805461066b90610fca565b80601f016020809104026020016040519081016040528092919081815260200182805461069790610fca565b80156106e45780601f106106b9576101008083540402835291602001916106e4565b820191906000526020600020905b8154815290600101906020018083116106c757829003601f168201915b505050505081526020016003820180546106fd90610fca565b80601f016020809104026020016040519081016040528092919081815260200182805461072990610fca565b80156107765780601f1061074b57610100808354040283529160200191610776565b820191906000526020600020905b81548152906001019060200180831161075957829003601f168201915b5050505050815260200160048201805461078f90610fca565b80601f01602080910402602001604051908101604052809291908181526020018280546107bb90610fca565b80156108085780601f106107dd57610100808354040283529160200191610808565b820191906000526020600020905b8154815290600101906020018083116107eb57829003601f168201915b50505091835250506005820154602082015260068201546001600160a01b031660408201526007820154606082015260089091015460ff16151560809091015292915050565b60006020819052908152604090208054819061086990610fca565b80601f016020809104026020016040519081016040528092919081815260200182805461089590610fca565b80156108e25780601f106108b7576101008083540402835291602001916108e2565b820191906000526020600020905b8154815290600101906020018083116108c557829003601f168201915b5050505050908060010180546108f790610fca565b80601f016020809104026020016040519081016040528092919081815260200182805461092390610fca565b80156109705780601f1061094557610100808354040283529160200191610970565b820191906000526020600020905b81548152906001019060200180831161095357829003601f168201915b50505050509080600201805461098590610fca565b80601f01602080910402602001604051908101604052809291908181526020018280546109b190610fca565b80156109fe5780601f106109d3576101008083540402835291602001916109fe565b820191906000526020600020905b8154815290600101906020018083116109e157829003601f168201915b505050505090806003018054610a1390610fca565b80601f0160208091040260200160405190810160405280929190818152602001828054610a3f90610fca565b8015610a8c5780601f10610a6157610100808354040283529160200191610a8c565b820191906000526020600020905b815481529060010190602001808311610a6f57829003601f168201915b505050505090806004018054610aa190610fca565b80601f0160208091040260200160405190810160405280929190818152602001828054610acd90610fca565b8015610b1a5780601f10610aef57610100808354040283529160200191610b1a565b820191906000526020600020905b815481529060010190602001808311610afd57829003601f168201915b50505050600583015460068401546007850154600890950154939491936001600160a01b03909116925060ff1689565b336000818152602081905260409020600601546001600160a01b031614610bc95760405162461bcd60e51b815260206004820152602d60248201527f4f6e6c792074686520636172206f776e65722063616e2061646a75737420746860448201526c329039b0b63290383934b1b29760991b606482015260840161017d565b3360009081526020819052604090206008015460ff1615156001146102925760405162461bcd60e51b815260206004820152602d60248201527f54686520636172206d75737420626520666f722073616c6520746f2061646a7560448201526c39ba103a343290383934b1b29760991b606482015260840161017d565b600060208284031215610c5857600080fd5b5035919050565b634e487b7160e01b600052604160045260246000fd5b600082601f830112610c8657600080fd5b813567ffffffffffffffff80821115610ca157610ca1610c5f565b604051601f8301601f19908116603f01168101908282118183101715610cc957610cc9610c5f565b81604052838152866020858801011115610ce257600080fd5b836020870160208301376000602085830101528094505050505092915050565b60008060008060008060c08789031215610d1b57600080fd5b863567ffffffffffffffff80821115610d3357600080fd5b610d3f8a838b01610c75565b97506020890135915080821115610d5557600080fd5b610d618a838b01610c75565b96506040890135915080821115610d7757600080fd5b610d838a838b01610c75565b95506060890135915080821115610d9957600080fd5b610da58a838b01610c75565b94506080890135915080821115610dbb57600080fd5b50610dc889828a01610c75565b92505060a087013590509295509295509295565b600060208284031215610dee57600080fd5b81356001600160a01b0381168114610e0557600080fd5b9392505050565b6000815180845260005b81811015610e3257602081850181015186830182015201610e16565b506000602082860101526020601f19601f83011685010191505092915050565b6020815260008251610120806020850152610e71610140850183610e0c565b91506020850151601f1980868503016040870152610e8f8483610e0c565b93506040870151915080868503016060870152610eac8483610e0c565b93506060870151915080868503016080870152610ec98483610e0c565b935060808701519150808685030160a087015250610ee78382610e0c565b92505060a085015160c085015260c0850151610f0e60e08601826001600160a01b03169052565b5060e0850151610100858101919091529094015115159390920192909252919050565b6000610120808352610f458184018d610e0c565b90508281036020840152610f59818c610e0c565b90508281036040840152610f6d818b610e0c565b90508281036060840152610f81818a610e0c565b90508281036080840152610f958189610e0c565b60a084019790975250506001600160a01b039390931660c084015260e083019190915215156101009091015295945050505050565b600181811c90821680610fde57607f821691505b602082108103610ffe57634e487b7160e01b600052602260045260246000fd5b50919050565b601f82111561104e57600081815260208120601f850160051c8101602086101561102b5750805b601f850160051c820191505b8181101561104a57828155600101611037565b5050505b505050565b815167ffffffffffffffff81111561106d5761106d610c5f565b6110818161107b8454610fca565b84611004565b602080601f8311600181146110b6576000841561109e5750858301515b600019600386901b1c1916600185901b17855561104a565b600085815260208120601f198616915b828110156110e5578886015182559484019460019091019084016110c6565b50858210156111035787850151600019600388901b60f8161c191681555b5050505050600190811b0190555056fea264697066735822122039dfead84279bf47bc10f8823b1729a5accf6f34632df78cff240b159f2c714464736f6c63430008120033",
  "immutableReferences": {},
  "source": "pragma solidity >=0.8.17;\n\ncontract CarSale {\n    struct Car {\n        string licensePlate;\n        string chassisNumber;\n        string brand;\n        string carType;\n        string color;\n        uint256 mileage;\n        address owner;\n        uint256 price;\n        bool isForSale;\n    }\n\n    mapping(address => Car) public cars;\n\n    function createCar(string memory _licensePlate, string memory _chassisNumber, string memory _brand, string memory _carType, string memory _color, uint256 _mileage) public {\n        require(cars[msg.sender].owner == address(0), \"Car already exists for this address\");\n        Car memory newCar = Car(_licensePlate, _chassisNumber, _brand, _carType, _color, _mileage, msg.sender, 0, false);\n        cars[msg.sender] = newCar;\n    }\n\n    function updateCarMileage(uint256 _mileage) public {\n        require(cars[msg.sender].owner == msg.sender, \"Only the car owner can update the mileage\");\n        require(_mileage > cars[msg.sender].mileage, \"New mileage must be higher than previous mileage\");\n        cars[msg.sender].mileage = _mileage;\n    }\n\n    function getCarData(address _owner) public view returns (Car memory) {\n        require(cars[_owner].owner != address(0), \"Car does not exist for this address\");\n        return (cars[_owner]);\n    }\n\n    function setCarForSale(uint256 _price) public {\n        require(cars[msg.sender].owner == msg.sender, \"Only the car owner can put the car for sale\");\n        cars[msg.sender].isForSale = true;\n        cars[msg.sender].price = _price;\n    }\n\n    function adjustSalePrice(uint256 _price) public {\n        require(cars[msg.sender].owner == msg.sender, \"Only the car owner can adjust the sale price.\");\n        require(cars[msg.sender].isForSale == true, \"The car must be for sale to adjust the price.\");\n        cars[msg.sender].isForSale = true;\n        cars[msg.sender].price = _price;\n    }\n\n    /* function buyCar(address _owner) public payable {\n        require(cars[_owner].owner != address(0), \"Car does not exist for this address\");\n        require(cars[_owner].isForSale == true, \"Car is not for sale\");\n        require(msg.value == cars[_owner].price, \"Incorrect payment amount\");\n        payable(cars[_owner].owner).transfer(msg.value);\n        cars[_owner].owner = msg.sender;\n        cars[_owner].isForSale = false;\n    } */\n}\n",
  "sourcePath": "/home/brumarq/dev/blockchain/carDealer/contracts/CarSale.sol",
  "compiler": {
    "name": "solc",
    "version": "0.8.18+commit.87f61d96.Emscripten.clang"
  },
  "schemaVersion": "3.4.12",
  "updatedAt": "2023-02-22T16:08:38.190Z",
  "networkType": "ethereum",
  "devdoc": {
    "kind": "dev",
    "methods": {},
    "version": 1
  },
  "userdoc": {
    "kind": "user",
    "methods": {},
    "version": 1
  }
}